{
  "contractName": "SalutLume",
  "abi": [
    {
      "constant": true,
      "inputs": [],
      "name": "name",
      "outputs": [
        {
          "internalType": "string",
          "name": "",
          "type": "string"
        }
      ],
      "payable": false,
      "stateMutability": "view",
      "type": "function"
    },
    {
      "constant": false,
      "inputs": [],
      "name": "BunaZiua",
      "outputs": [
        {
          "internalType": "string",
          "name": "passedName",
          "type": "string"
        }
      ],
      "payable": false,
      "stateMutability": "nonpayable",
      "type": "function"
    }
  ],
  "bytecode": "0x608060405234801561001057600080fd5b50610251806100206000396000f3fe608060405234801561001057600080fd5b50600436106100365760003560e01c806306fdde031461003b578063d1ca8368146100be575b600080fd5b610043610141565b6040518080602001828103825283818151815260200191508051906020019080838360005b83811015610083578082015181840152602081019050610068565b50505050905090810190601f1680156100b05780820380516001836020036101000a031916815260200191505b509250505060405180910390f35b6100c66101df565b6040518080602001828103825283818151815260200191508051906020019080838360005b838110156101065780820151818401526020810190506100eb565b50505050905090810190601f1680156101335780820380516001836020036101000a031916815260200191505b509250505060405180910390f35b60008054600181600116156101000203166002900480601f0160208091040260200160405190810160405280929190818152602001828054600181600116156101000203166002900480156101d75780601f106101ac576101008083540402835291602001916101d7565b820191906000526020600020905b8154815290600101906020018083116101ba57829003601f168201915b505050505081565b60606040518060400160405280600e81526020017f42756e61205a697561204c756d6500000000000000000000000000000000000081525090509056fea265627a7a7231582064a990bb5b40972473bf896e4216e365ff865b2c3aa001bd4d3266b69734a14964736f6c63430005100032",
  "source": "pragma solidity ^0.5.16;\r\n\r\ncontract SalutLume {\r\n    string public name;\r\n\r\n    function BunaZiua() public returns (string memory passedName) {\r\n        return \"Buna Ziua Lume\";\r\n    }\r\n}\r\n",
  "sourcePath": "C:\\Users\\sergi\\SandBox\\SalutLume\\contracts\\SalutLume.sol",
  "compiler": {
    "name": "solc",
    "version": "0.5.16+commit.9c3226ce.Emscripten.clang"
  },
  "schemaVersion": "3.4.3",
  "updatedAt": "2021-09-09T23:30:34.370Z",
  "networkType": "ethereum",
  "devdoc": {
    "methods": {}
  },
  "userdoc": {
    "methods": {}
  }
}