{
  "contractName": "ScoreStore",
  "abi": [
    {
      "constant": true,
      "inputs": [
        {
          "internalType": "string",
          "name": "",
          "type": "string"
        }
      ],
      "name": "PersonScores",
      "outputs": [
        {
          "internalType": "int256",
          "name": "",
          "type": "int256"
        }
      ],
      "payable": false,
      "stateMutability": "view",
      "type": "function"
    },
    {
      "constant": false,
      "inputs": [
        {
          "internalType": "string",
          "name": "name",
          "type": "string"
        },
        {
          "internalType": "int256",
          "name": "score",
          "type": "int256"
        }
      ],
      "name": "AddPersonScore",
      "outputs": [],
      "payable": false,
      "stateMutability": "nonpayable",
      "type": "function"
    },
    {
      "constant": false,
      "inputs": [
        {
          "internalType": "string",
          "name": "name",
          "type": "string"
        }
      ],
      "name": "GetScore",
      "outputs": [
        {
          "internalType": "int256",
          "name": "",
          "type": "int256"
        }
      ],
      "payable": false,
      "stateMutability": "nonpayable",
      "type": "function"
    }
  ],
  "bytecode": "0x608060405234801561001057600080fd5b506103f0806100206000396000f3fe608060405234801561001057600080fd5b50600436106100415760003560e01c8063308d1964146100465780636af72f2514610115578063fdb402b8146101e4575b600080fd5b6100ff6004803603602081101561005c57600080fd5b810190808035906020019064010000000081111561007957600080fd5b82018360208201111561008b57600080fd5b803590602001918460018302840111640100000000831117156100ad57600080fd5b91908080601f016020809104026020016040519081016040528093929190818152602001838380828437600081840152601f19601f8201169050808301925050505050505091929192905050506102a9565b6040518082815260200191505060405180910390f35b6101ce6004803603602081101561012b57600080fd5b810190808035906020019064010000000081111561014857600080fd5b82018360208201111561015a57600080fd5b8035906020019184600183028401116401000000008311171561017c57600080fd5b91908080601f016020809104026020016040519081016040528093929190818152602001838380828437600081840152601f19601f82011690508083019250505050505050919291929050505061031b565b6040518082815260200191505060405180910390f35b6102a7600480360360408110156101fa57600080fd5b810190808035906020019064010000000081111561021757600080fd5b82018360208201111561022957600080fd5b8035906020019184600183028401116401000000008311171561024b57600080fd5b91908080601f016020809104026020016040519081016040528093929190818152602001838380828437600081840152601f19601f82011690508083019250505050505050919291929080359060200190929190505050610349565b005b600080826040518082805190602001908083835b602083106102e057805182526020820191506020810190506020830392506102bd565b6001836020036101000a0380198251168184511680821785525050505050509050019150509081526020016040518091039020549050919050565b6000818051602081018201805184825260208301602085012081835280955050505050506000915090505481565b806000836040518082805190602001908083835b60208310610380578051825260208201915060208101905060208303925061035d565b6001836020036101000a038019825116818451168082178552505050505050905001915050908152602001604051809103902081905550505056fea265627a7a72315820fcf692ea4bc69c729126a0be8f45f0e98dd81e3f86e75eb29a2b9ab3d162565a64736f6c63430005100032",
  "source": "pragma solidity ^0.5.16;\r\n\r\ncontract ScoreStore {\r\n    mapping (string => int) public PersonScores;\r\n\r\n    function AddPersonScore(string memory name, int256 score) public {\r\n        PersonScores[name] = score;\r\n    }\r\n\r\n    function GetScore(string memory name) public returns (int256) {\r\n        return PersonScores[name];\r\n    }\r\n}\r\n",
  "sourcePath": "C:\\Users\\sergi\\SandBox\\ScoreStore\\contracts\\ScoreStore.sol",
  "compiler": {
    "name": "solc",
    "version": "0.5.16+commit.9c3226ce.Emscripten.clang"
  },
  "schemaVersion": "3.4.3",
  "updatedAt": "2021-09-10T00:26:30.097Z",
  "networkType": "ethereum",
  "devdoc": {
    "methods": {}
  },
  "userdoc": {
    "methods": {}
  }
}